:020000040000FA
:060000001FEF18F01200D2
:0A0006000300A8300000AB0000006A
:100010000A000000A4300000B50000000400000049
:0C002000A2300000B90000000200000047
:04002C00D9CFE6FF43
:10003000E1CFD9FF020EE12681808182F40EDE6ECF
:10004000010EDD6EDFCF14F0DF06010EDBCF15F001
:1000500001E2DB061450151006E0030EE66EFFEC1D
:1000600017F0E552EFD781908192020EE15C02E237
:10007000E16AE552E16EE552E7CFD9FF12008190C7
:1000800081921200D9CFE6FFE1CFD9FF0C0EE12615
:10009000040EDB6A050EDB6A060EDB6A070EDB6AFE
:1000A000010EF36E080EF3CFDBFF090EDB6A0A0EBA
:1000B000DB6A0B0EDB6A040EDB6A050EDB6A060EDA
:1000C000DB6A070EDB6AD950040FE96EDACFEAFF6C
:1000D000E80EEE5C030EEE58000EEE58000EEE58E1
:1000E00001E386D0D9CFE9FFDACFEAFF080EDBCFF4
:1000F000EEFF090EDBCFEEFF0A0EDBCFEEFF0B0E9D
:10010000DBCFEEFF080EDBCF14F0090EDBCF15F0CE
:100110000A0EDBCF16F00B0EDBCF17F0FB0EDBCF9A
:1001200018F0FC0EDBCF19F0FD0EDBCF1AF0FE0E3F
:10013000DBCF1BF018C004F019C005F01AC006F0A0
:100140001BC007F0080EDBCF09F0090EDBCF0AF069
:100150000A0EDBCF0BF00B0EDBCF0CF0B3EC17F07D
:1001600014500424046E15500520056E1650062008
:10017000066E17500720076E020E096E0A6A0B6A98
:100180000C6AB3EC17F0080E04C0DBFF090E05C0C3
:10019000DBFF0A0E06C0DBFF0B0E07C0DBFF080EFD
:1001A000DBCF14F0090EDBCF15F00A0EDBCF16F013
:1001B0000B0EDBCF17F0D9CFE9FFDACFEAFFEE5015
:1001C000141809E1EE50151806E1EE50161803E177
:1001D000EE50171800E101E10BD0D950040FE96E81
:1001E000DACFEAFFEE2A000EEE22EE22EE226BD7E5
:1001F000080EDBCF14F0090EDBCF15F00A0EDBCFB3
:1002000016F00B0EDBCF17F014C004F015C005F08C
:1002100016C006F017C007F00C0EE15C03E200D038
:10022000E16AE552E16EE552E7CFD9FF1200D9CF7E
:10023000E6FFE1CFD9FF020EE12621DF826AED0E53
:10024000146E2E0E156E166A14C0E6FF15C0E6FF7A
:1002500016C0E6FF800EE66E000EE66E62EC16F04B
:10026000176E050EE15E1750E66AEEEC0DF0E552F2
:10027000020EDE6EDD6ADFCF14F0DF06010EDBCF8B
:1002800015F001E2DB061450151006E0030EE66ED1
:10029000FFEC17F0E552EFD7E10E146E2E0E156E3F
:1002A000166A14C0E6FF15C0E6FF16C0E6FF800E12
:1002B000E66E000EE66E62EC16F0176E050EE15E5D
:1002C0001750010EE66EEEEC0DF0E552020EE15C09
:1002D00002E2E16AE552E16EE552E7CFD9FF120092
:1002E000D76AD66A070ED56E1200D9CFE6FFE1CFE6
:1002F000D9FF100EE126DE6ADE6ADE6ADD6ADD52B3
:10030000DD52D40E146E2E0E156E166A14C0E6FF62
:1003100015C0E6FF16C0E6FF800EE66E000EE66E24
:1003200062EC16F0176E050EE15E1750E66AEEEC11
:100330000DF0E552FA0EF36E040EF3CFDBFF050E5F
:10034000DB6A040EDBCF14F0DB06050EDBCF15F005
:1003500001E2DB061450151006E0030EE66EFFEC1A
:1003600017F0E552EED7D76AD66A81840A0EF36E8B
:10037000060EF3CFDBFF070EDB6A060EDBCF14F0B1
:10038000DB06070EDBCF15F001E2DB06145015107B
:1003900006E0030EE66EFFEC17F0E552EED781940F
:1003A000010EF36E080EF3CFDBFF090EDB6A080EB9
:1003B000DBCF14F0DB06090EDBCF15F001E2DB0624
:1003C0001450151006E0030EE66EFFEC17F0E55230
:1003D000EED781A8FED7D58E81B8FED7D59ED7504F
:1003E000000EF350D610146E000E14C0DFFF010E85
:1003F000DB6A020EDB6A030EDB6AD9CFE9FFDACFD4
:10040000EAFFEECFE6FFEECFE6FFEECFE6FFEFCF5F
:10041000E6FFC50E146E2E0E156E166A14C0E6FFAA
:1004200015C0E6FF16C0E6FFAEEC16F0176E070E1D
:10043000E15E1750DECF04F0DECF05F0DECF06F030
:10044000DDCF07F0DD52DD5203D1D9CFE9FFDACF9E
:10045000EAFFEECF18F0EECF19F0EECF1AF0EFCFA3
:100460001BF018C004F019C005F01AC006F01BC03C
:1004700007F0BBEC14F005C014F006C015F007C07F
:1004800016F008C017F0AE0E0A6E470E0B6E6B0E1C
:100490000C6E420E0D6E14C005F015C006F016C0AD
:1004A00007F017C008F0D6EC14F029EC15F004C0E2
:1004B000DEFF05C0DEFF06C0DEFF07C0DDFFDD5248
:1004C000DD52010E146E156A166A176AD9CFE9FF5C
:1004D000DACFEAFFEE501426EE501522EE50162227
:1004E000EE50172214C0DFFF010E15C0DBFF020E15
:1004F00016C0DBFF030E17C0DBFFD9CFE9FFDACF51
:10050000EAFFD880020EEE54000EEE54000EEE54B8
:10051000000EEE5462E2D9CFE9FFDACFEAFF900E87
:10052000EE5C010EEE58000EEE58000EEE5855E24D
:10053000F40EF36E0A0EF3CFDBFF010EF36E0B0E1B
:10054000F3CFDBFF0A0EDBCF14F0DB060B0EDBCFA5
:1005500015F001E2DB061450151006E0030EE66EFE
:10056000FFEC17F0E552EED7D9CFE9FFDACFEAFF7B
:10057000EECFE6FFEECFE6FFEECFE6FFEFCFE6FFF2
:10058000010EE66E26EC11F0146E050EE15E1450BD
:10059000320EF36E0C0EF3CFDBFF0D0EDB6A0C0E8A
:1005A000DBCF14F0DB060D0EDBCF15F001E2DB062E
:1005B0001450151006E0030EE66EFFEC17F0E5523E
:1005C000EED7DECF04F0DECF05F0DECF06F0DDCFD4
:1005D00007F0DD52DD523CD03BD0F40EF36E0E0E30
:1005E000F3CFDBFF010EF36E0F0EF3CFDBFF0E0E2A
:1005F000DBCF14F0DB060F0EDBCF15F001E2DB06DC
:100600001450151006E0030EE66EFFEC17F0E552ED
:10061000EED7D9CFE9FFDACFEAFFEECFE6FFEECF94
:10062000E6FFEECFE6FFEFCFE6FF010EE66E26EC2B
:1006300011F0146E050EE15E1450DECF04F0DECF33
:1006400005F0DECF06F0DDCF07F0DD52DD5200D041
:10065000100EE15C02E2E16AE552E16EE552E7CF9D
:10066000D9FF1200D9CFE6FFE1CFD9FF100EE12666
:10067000DE6ADE6ADE6ADD6ADD52DD52B90E146EB4
:100680002E0E156E166A14C0E6FF15C0E6FF16C0E2
:10069000E6FF800EE66E000EE66E62EC16F0176E58
:1006A000050EE15E1750E66AEEEC0DF0E552FA0E2B
:1006B000F36E040EF3CFDBFF050EDB6A040EDBCF17
:1006C00014F0DB06050EDBCF15F001E2DB0614505B
:1006D000151006E0030EE66EFFEC17F0E552EED7BC
:1006E000D76AD66A81860A0EF36E060EF3CFDBFF59
:1006F000070EDB6A060EDBCF14F0DB06070EDBCF3E
:1007000015F001E2DB061450151006E0030EE66E4C
:10071000FFEC17F0E552EED78196010EF36E080E4E
:10072000F3CFDBFF090EDB6A080EDBCF14F0DB062C
:10073000090EDBCF15F001E2DB061450151006E0C0
:10074000030EE66EFFEC17F0E552EED781AAFED756
:10075000D58E81BAFED7D59ED750000EF350D61055
:10076000146E000E14C0DFFF010EDB6A020EDB6A9E
:10077000030EDB6AD9CFE9FFDACFEAFFEECFE6FF5F
:10078000EECFE6FFEECFE6FFEFCFE6FFAA0E146E48
:100790002E0E156E166A14C0E6FF15C0E6FF16C0D1
:1007A000E6FFAEEC16F0176E070EE15E1750DECFD7
:1007B00004F0DECF05F0DECF06F0DDCF07F0DD522E
:1007C000DD5203D1D9CFE9FFDACFEAFFEECF18F03F
:1007D000EECF19F0EECF1AF0EFCF1BF018C004F0F7
:1007E00019C005F01AC006F01BC007F0BBEC14F0EE
:1007F00005C014F006C015F007C016F008C017F0C9
:10080000AE0E0A6E470E0B6E6B0E0C6E420E0D6E28
:1008100014C005F015C006F016C007F017C008F0A8
:10082000D6EC14F029EC15F004C0DEFF05C0DEFFA5
:1008300006C0DEFF07C0DDFFDD52DD52010E146E83
:10084000156A166A176AD9CFE9FFDACFEAFFEE50C8
:100850001426EE501522EE501622EE50172214C028
:10086000DFFF010E15C0DBFF020E16C0DBFF030E1B
:1008700017C0DBFFD9CFE9FFDACFEAFFD880020E3D
:10088000EE54000EEE54000EEE54000EEE5462E2F2
:10089000D9CFE9FFDACFEAFF900EEE5C010EEE58F9
:1008A000000EEE58000EEE5855E2F40EF36E0A0EEE
:1008B000F3CFDBFF010EF36E0B0EF3CFDBFF0A0E5F
:1008C000DBCF14F0DB060B0EDBCF15F001E2DB060D
:1008D0001450151006E0030EE66EFFEC17F0E5521B
:1008E000EED7D9CFE9FFDACFEAFFEECFE6FFEECFC2
:1008F000E6FFEECFE6FFEFCFE6FF010EE66E26EC59
:1009000011F0146E050EE15E1450320EF36E0C0EF3
:10091000F3CFDBFF0D0EDB6A0C0EDBCF14F0DB0632
:100920000D0EDBCF15F001E2DB061450151006E0CA
:10093000030EE66EFFEC17F0E552EED7DECF04F0C3
:10094000DECF05F0DECF06F0DDCF07F0DD52DD5261
:100950003CD03BD0F40EF36E0E0EF3CFDBFF010E56
:10096000F36E0F0EF3CFDBFF0E0EDBCF14F0DB06C2
:100970000F0EDBCF15F001E2DB061450151006E078
:10098000030EE66EFFEC17F0E552EED7D9CFE9FF84
:10099000DACFEAFFEECFE6FFEECFE6FFEECFE6FFDF
:1009A000EFCFE6FF010EE66E26EC11F0146E050E99
:1009B000E15E1450DECF04F0DECF05F0DECF06F0AE
:1009C000DDCF07F0DD52DD5200D0100EE15C02E217
:1009D000E16AE552E16EE552E7CFD9FF1200D9CFC7
:1009E000E6FFE1CFD9FF1E0EE126DE6ADE6ADE6A8F
:1009F000DD6ADD52DD52040EDB6A050EDB6A060E8F
:100A0000DB6A070EDB6A080EDB6A090EDB6A0A0E78
:100A1000DB6A0B0EDB6AC1EC0DF062DC77EC12F0E6
:100A2000020EF36E0C0EF3CFDBFF0D0EDB6A0C0E25
:100A3000DBCF14F0DB060D0EDBCF15F001E2DB0699
:100A40001450151006E0030EE66EFFEC17F0E552A9
:100A5000EED7A20E146E2E0E156E166A14C0E6FFA7
:100A600015C0E6FF16C0E6FF800EE66E000EE66ECD
:100A700062EC16F0176E050EE15E1750E66AEEECBA
:100A80000DF0E552020EF36E0E0EF3CFDBFF0F0EEC
:100A9000DB6A0E0EDBCF14F0DB060F0EDBCF15F09A
:100AA00001E2DB061450151006E0030EE66EFFECC3
:100AB00017F0E552EED7950E146E2E0E156E166ACF
:100AC00014C0E6FF15C0E6FF16C0E6FF800EE66E16
:100AD000000EE66E62EC16F0176E050EE15E175022
:100AE000010EE66EEEEC0DF0E552F00E936E946A98
:100AF0008A6A8B6A816A826A1E0EC16EE10E926EEC
:100B00001E0E806E896E830E146E2E0E156E166A82
:100B100014C0E6FF15C0E6FF16C0E6FF800EE66EC5
:100B2000000EE66E62EC16F0176E050EE15E1750D1
:100B3000E66AEEEC0DF0E552FA0EF36E100EF3CF0E
:100B4000DBFF110EDB6A100EDBCF14F0DB06110E9B
:100B5000DBCF15F001E2DB061450151006E0030EA2
:100B6000E66EFFEC17F0E552EED7DE6ADE6ADE6A6B
:100B7000DD6ADD52DD52040EDB6A050EDB6A060E0D
:100B8000DB6A070EDB6A320EF36E120EF3CFDBFF69
:100B9000130EDB6A120EDBCF14F0DB06130EDBCF75
:100BA00015F001E2DB061450151006E0030EE66EA8
:100BB000FFEC17F0E552EED775EC01F004C0DEFF54
:100BC00005C0DEFF06C0DEFF07C0DDFFDD52DD52DF
:100BD000320EF36E140EF3CFDBFF150EDB6A140E2C
:100BE000DBCF14F0DB06150EDBCF15F001E2DB06E0
:100BF0001450151006E0030EE66EFFEC17F0E552F8
:100C0000EED730DD040E04C0DBFF050E05C0DBFFB0
:100C1000060E06C0DBFF070E07C0DBFF780E146E62
:100C20002E0E156E166A14C0E6FF15C0E6FF16C03C
:100C3000E6FF800EE66E000EE66E62EC16F0176EB2
:100C4000050EE15E1750E66AEEEC0DF0E552FA0E85
:100C5000F36E160EF3CFDBFF170EDB6A160EDBCF3B
:100C600014F0DB06170EDBCF15F001E2DB061450A3
:100C7000151006E0030EE66EFFEC17F0E552EED716
:100C8000080EDB6A090EDB6A0A0EDB6A0B0EDB6AF2
:100C9000D9CFE9FFDACFEAFFEECFE6FFEECFE6FFEE
:100CA000EECFE6FFEFCFE6FFE66A26EC11F0146E1A
:100CB000050EE15E1450D00EF36E180EF3CFDBFF7D
:100CC000070EF36E190EF3CFDBFF180EDBCF14F017
:100CD000DB06190EDBCF15F001E2DB061450151010
:100CE00006E0030EE66EFFEC17F0E552EED7D950A2
:100CF000040FE96EDACFEAFFEECFE6FFEECFE6FFB4
:100D0000EECFE6FFEFCFE6FF010EE66E26EC11F028
:100D1000146E050EE15E1450D00EF36E1A0EF3CF72
:100D2000DBFF070EF36E1B0EF3CFDBFF1A0EDBCFDC
:100D300014F0DB061B0EDBCF15F001E2DB061450CE
:100D4000151006E0030EE66EFFEC17F0E552EED745
:100D5000D950080FE96EDACFEAFFEECFE6FFEECF0B
:100D6000E6FFEECFE6FFEFCFE6FF010EE66E26ECE4
:100D700011F0146E050EE15E1450D00EF36E1C0ED1
:100D8000F3CFDBFF070EF36E1D0EF3CFDBFF1C0E60
:100D9000DBCF14F0DB061D0EDBCF15F001E2DB0626
:100DA0001450151006E0030EE66EFFEC17F0E55246
:100DB000EED7A9D61E0EE15C02E2E16AE552E16ED1
:080DC000E552E7CFD9FF120054
:080DC80020EC0CF0FB0EDBCF68
:100DD000F3FFDB06F35000090AE06EEC0CF0FA0EAC
:100DE000D9EC0CF0F3E1151CF1E1010E01D0000E7D
:100DF0004FEF0CF020EC0CF03B0EE12402E3E16835
:100E0000E652E16E010EDB6A020EDB6AF90EDBCF01
:100E1000F6FFFA0EDBCFF7FFFB0EDBCFF8FF080083
:100E2000F550DF6EDF5002E173EF0BF0250EDF5C53
:100E300002E066EF0BF0030EDB6A040EDB6A050EC0
:100E4000DB6A060EDB6A070EDB6A88EC0BF02D0E00
:100E5000DF5C0CE02B0EDF5C09E0200EDF5C06E0BF
:100E6000230EDF5C03E0300EDF5C1AE1DF50300A56
:100E700014E0130A0FE0030A0AE00B0A05E0060A71
:100E8000E4E1030EDB80E1D7030EDB82DED7030E45
:100E9000DB84DBD7030EDB86D8D7030EDB88D5D700
:100EA0002A0EDF5C1BE184EC0BF0D2EC0BF010E0BF
:100EB000030EDB8006680768130EDBCF0BF0140E01
:100EC000DBCF0CF0E6EC15F0040E04C0DBFF03D022
:100ED000130EBBEC0BF088EC0BF00BD0090EDB6AA9
:100EE00029EC0CF003E09DEC0CF0FAD7090EBBECFA
:100EF0000BF0030EDBB0DB982E0EDF5C1BE188EC01
:100F00000BF02A0EDF5C0BE184EC0BF0D2EC0BF063
:100F100003E1130E0DEC0CF088EC0BF00BD0090E76
:100F2000DB6A29EC0CF003E09DEC0CF0FAD7090E1B
:100F30000DEC0CF0680EDF5C07E188EC0BF0680E3E
:100F4000DF5C1DE1030E18D0740EDF5C17E07A0E33
:100F5000DF5C14E0480EDF5C06E0540EDF5C03E06B
:100F60005A0EDF5C02E1020E07D06C0EDF5C03E07C
:100F70006A0EDF5C04E1010E60EC0CF0C9DBDF50AF
:100F80006E0A01E17FD31E0A01E192D1200A01E13C
:100F90008FD13F0A01E149D11A0A01E146D10D0A78
:100FA00001E143D1200A01E140D13A0A01E13DD1FA
:100FB000200A01E13AD1260A01E135D10D0A01E109
:100FC00032D11A0A01E1D9D0200A4AE0300A1FE0E2
:100FD000460A0EE0250A01E083D3D950F90FE96EE5
:100FE000FF0EDA20EA6E010EEE5E000EEE5AEE5AA9
:100FF0006EEC0CF0250EE66E95DB03E1151C01E1AD
:1010000069D36AEC0CF001E26BD3DB2A69D3080EDA
:10101000DB6A040EDB50010806E2040EDB0432EC4E
:101020000CF0DB508BDB080EDB5009E0030EDB50CD
:10103000010B05E172DB01E04DD3080EDB6A64DBD6
:10104000EFCFDFFFE2EC0CF003E1151C01E142D32E
:101050006AEC0CF001E3DB2A60DB01E141D33AD317
:10106000070EDB5002080FE1AEEC0CF0030E75EC3E
:101070000CF00E0EEECFDBFF0F0EEECFDBFF100EEF
:10108000EECFDBFF20D0F70EDBCF17F0F80EDBCF73
:1010900018F0020E175E000E185AF70E17C0DBFF8D
:1010A000F80E18C0DBFF17C0E9FF18C0EAFF65ECB7
:1010B0000CF0166A0E0E14C0DBFF0F0E15C0DBFF1E
:1010C000100E16C0DBFF0E0EDBCFE6FF0F0EDBCFE0
:1010D000E6FF100EDBCFE6FF89EC16F0E552E55295
:1010E000E552130E05C0DBFF140E06C0DBFF060E33
:1010F000DB5005E0130EA9EC0CF001E26ADBCDEC4D
:101100000CF002E2130E37DB90EC0CF006E0040E5C
:10111000A9EC0CF002E2050E2EDB030EDBB005D0CD
:10112000FCDA01E0D7D2080EDB6A090EDB6A0E0E8C
:10113000DBCFF6FF0F0EDBCFF7FF100EDBCFF8FF94
:101140000800F550DF6EDF5014E0D3EC0CF011E234
:10115000E2EC0CF003E1151C01E1BCD2BBDB01E3C6
:10116000DB2A090EDB2AD9500E0FE96E000ECBDB0D
:10117000E7D7D3DA01E1B4D2ADD2C6DA110EEECFA1
:10118000DBFF120EEDCFDBFF110EDBCFE6FF120E01
:10119000DBCFE6FF7BEC16F0E552E552130EF3CF02
:1011A000DBFF140EF4CFDBFF060EDB5004E0130E62
:1011B000D0DB01E20EDBCDEC0CF002E2130EDBDA49
:1011C000AFDB05E0040EC5DB02E2050ED4DA030E48
:1011D000DBB005D0A2DA01E07DD2080EDB6A090E91
:1011E000DB6A110EDBCFE9FF120EDBCFEAFFEFCF98
:1011F000DFFFDF5014E0D7DB12E2E4DB03E1151C74
:1012000001E168D267DB01E3DB2A090EDB2A110E5C
:10121000DB2ADBCFE9FF120EE8E3DB2AE6D77DDA33
:1012200001E15ED257D2030EDB8E070EDB0410E124
:1012300095DB040E5ADB0A0EEECFDBFF0B0EEECF72
:10124000DBFF0C0EEECFDBFF0D0EEECFDBFF6CD025
:10125000070EDB5003082CE1030EDBAE0DD0B2DA33
:10126000020E76DAEFCF14F0156A166A176A14AE1A
:1012700039D01568166835D0F70EDBCF15F0F80EAB
:10128000DBCF16F0020E155E000E165AF70E15C0D3
:10129000DBFFF80E16C0DBFF15C0E9FF16C0EAFF42
:1012A000EFCF14F00A0E14C0DBFF0B0EDB6A38D050
:1012B000070EDB50020809E1030EDBAE04D059DB58
:1012C00016AE10D00ED055DB0DD0030EDBAE12D013
:1012D00079DA020E3DDAF9DA166A176A15AE02D02B
:1012E00016681768E2DA0C0E16C0DBFF0D0E17C089
:1012F000DBFF1AD0F70EDBCF16F0F80EDBCF17F0BE
:10130000020E165E000E175AF70E16C0DBFFF80E1F
:1013100017C0DBFF16C0E9FF17C0EAFFD6DAC5DA4F
:101320000C0EDB6A0D0EDB6A060EDB5005E1010ECA
:10133000F36E050EF3CFDBFF150EDB6A160EDB6ACC
:10134000D950370F146E000EDA20156E390E14C006
:10135000DBFF3A0E15C0DBFF380EDB6A080EDB6AD6
:101360000A0EAEDADF50780A12E0200A10E0280AEE
:101370000CE0200A0AE03F0A06E00D0A02E0200A1B
:1013800008E1020E05D0080E03D0080EDF26100E6D
:1013900097DA030EDBBE02D0DB92DB94DB50800BCE
:1013A00024E08ADAD890030EEB50000A08E6000E1B
:1013B000EE5C000EEE58000EEE58000EEE5815E2F0
:1013C00013DA09680A680B680C687BEC17F00A0EE0
:1013D00000C0DBFF0B0E01C0DBFF0C0E02C0DBFF09
:1013E0000D0E03C0DBFF2D0E08D0030EDBA202D0D2
:1013F0002B0E03D0DBA408D0200EF36E170EF3CF14
:10140000DBFF150EDB2A02D0170EDB6A050EDB5060
:1014100003E1B7D901E189D08C0E146E300E156E40
:10142000000E166E070EDBCF17F0186A196A1A6ADB
:1014300017C009F018C00AF019C00BF01AC00CF060
:10144000D3D9B3EC17F014500024F36E15500120DB
:10145000F46E16500220F86EF4CFF7FFF3CFF6FFCC
:101460000800090EF5CFDBFF580EDF5C0FE1610EBF
:10147000F36E090E7BD90AE3200E146E090EDBCF42
:10148000E7FF1450E75E090EE7CFDBFF070EDBCF67
:1014900014F0156A166A176A0FDA14C009F015C03D
:1014A0000AF016C00BF017C00CF0EECF04F0EECF30
:1014B00005F0EECF06F0EFCF07F0B3EC17F007C062
:1014C000EDFF06C0EDFF05C0EDFF04C0EFFF390ED4
:1014D000DBCFE9FFDB063A0EDBCFEAFF01E2DB06FA
:1014E000090EDBCFEFFF150EDB2A4BD995E1030E7A
:1014F000DBA61DD06F0EDF5C06E1C1D918E3150E27
:10150000DB285BDA14D0780EDF5C09E0580EDF5C74
:1015100006E0620EDF5C03E0420EDF5C08E1020ED3
:10152000F36E160EF3CFDBFF02D0150EDB6A030E4F
:10153000DB50100B0EE0040EDBCF14F0050EDB5079
:10154000D880145406E2060EDB5003E1040EDB5093
:1015500034DA95D90AE2050EDBCFE7FF150EDB5032
:10156000E75E050EE7CFDBFF02D0050EDB6A040E57
:10157000DBCF14F0160E45D9D880145414E2160EA1
:10158000DBCFE6FF150EDBCFE6FF040EDBCFE6FF79
:10159000050EDB50E552E75CE552D880E754E55292
:1015A000D880E7545FD9030EDB50010B0BE1080E26
:1015B000DB5008E0B2D801E08DD0080EDB50BED879
:1015C000080EDB6A170EDB5007E088D9170EF1D939
:1015D00003E1151C01E17ED0160EDB5016E07ED92A
:1015E000300EE66E9FD802E1151C74E077D9DFCF8C
:1015F000E6FFFAEC16F0E552E552E552F4CF15F0AD
:101600000001F31C02E1151C65E0050EDBCF14F0B0
:10161000160EDB50D880145409E2050EDBCFE7FF2D
:10162000160EDB50E75E050EE7CFDBFF300EE66EF1
:10163000050ECBD94FE1390EDB2ADBCFE9FF3A0E9D
:1016400001E3DB2ADBCFEAFF090EEFCFDBFFDB5044
:101650000EE044D9090EADD902E1151C3BE0390E6C
:10166000DB2ADBCFE9FF3A0EEDE3DB2AEBD755D8D7
:1016700031E1160EDBCFE6FF080EC3D8E552E724B2
:101680005DD82ED0070EDB50030A1CE0010A14E0DF
:10169000030A07E07BD9DBCFEEFF020EDBCFEDFFC5
:1016A0001FD0F5D8196A17AE02D0186819682CD85F
:1016B000BCD819C0EEFF14D0EAD817BE186824D8D9
:1016C000B4D80ED063D9DBCFEFFF0AD07BD905E1C8
:1016D000151C03E1F368F46810D0FCD801E3DB2AA1
:1016E00079D90FEF07F0010EDBCF14F0020EDBCF3C
:1016F00015F014C0F3FF15C0F4FF3B0EE15C02E2ED
:10170000E16AE552E16ECBD029D9020E75EF0CF0FB
:1017100061D90800F550DF6E1200200EE66E080E4B
:10172000E5EF0CF0FAEC16F0E552E552E552F3CF96
:1017300014F0F4CF15F00001F31C1200146E156ABA
:10174000D950010F4DD91450EE261550ED2212003C
:10175000185E000E195AF70E18C0DBFFF80E19C0FC
:10176000DBFF18C0E9FF19C0EAFF1200DBCFF4FF6E
:10177000F350F45C1200DB50E76E040EE7CFDBFFA2
:1017800012000A0EDBCF14F00B0EDBCF15F00C0E9F
:10179000DBCF16F00D0EDBCF17F01450151016101E
:1017A00017101200130EEECFDBFF140EEDCFDBFF90
:1017B000130EDBCF14F0140EDBCF15F00001800EFA
:1017C00015141200F70EDBCF18F0F80EDBCF19F06E
:1017D0001200050EDB50E66ED950130F01D9E55209
:1017E000E750EE6EED6A12000A0EDBCF04F00B0E2E
:1017F000DBCF05F00C0EDBCF06F00D0EDBCF07F0D4
:101800001200DBCFE6FF150EDBCFE6FF050EDB5047
:10181000E552E724E552E7241200DB50CED8010E52
:10182000F36E060EF3CFDBFF1200EE50EFCFEAFFB0
:10183000E96E16C0EEFF17C0EEFF18C0EEFF1200F3
:10184000D9CFE6FFDACFE6FFE1CFD9FFE2CFDAFF6B
:101850001200DFCFE6FFE66AEDEC17F0E552E55245
:10186000F3501200E76E080EE7CFDBFF1200EECF59
:1018700014F0EECF15F0EFCF16F0176A1200050E38
:10188000DBCF14F0150EDB50D88014541200010E7B
:10189000DBCF16F0020EDBCF17F0186A1200E5520C
:1018A000E5CFDAFFE7CFD9FF12000A0E14C0DBFF45
:1018B0000B0E15C0DBFF1200D9500A0FF0EF0CF031
:1018C000F36E070EF3CFDBFF1200EECF14F0EFCF75
:1018D00015F01200010EDB2A020E1200FC0EDBCF07
:1018E000E6FFFD0EDBCFE6FF1200145E000E155A78
:1018F000F70E14C0DBFFF80E15C0DBFF14C0E9FFC4
:1019000015C0EAFF1200DA20EA6EEF2AEECFF6FFEA
:10191000000EEF22EECFF7FFEF22EECFF8FF12001E
:10192000040EDBCFE6FF130EDB50E552E75C9ADFD7
:10193000DB5004DF060EDB501200090EDB500A0DEF
:10194000F350DF24D00FE76E090EE7CFDBFF88EFFF
:101950000BF0DB50F36E050EB6EF0BF0F70EDBCF9E
:1019600014F0F80EDBCF15F01200DFCFE6FF92EF98
:101970000BF028DF030EECDE37EF0CF0E4EC06F0A2
:10198000E552E552E552E55200091200BDDEEE5087
:10199000EFCFEAFFE96E010E1200130EDB50F36E7B
:1019A000040EB6EF0BF0040EDB50F36E090EB6EF2B
:1019B0000BF0DBCFE6FF92EF0BF0E76E050EE7CF03
:1019C000DBFF12008BDFB5EF0CF0DBCFE6FF86DF2D
:1019D000BEEF0CF0D950F90FE96EFF0E83EF0CF05B
:0A19E000E96E000EDA20EA6E120034
:0619EA00D9CFE6FFE1CFBA
:1019F000D9FF040EE126DE6ADD6ADECF14F0DDCF0A
:101A000015F0D890155004E6F40E145C010E15582C
:101A10001DE2020EDB6A030EDB6A020EDBCF14F05E
:101A2000030EDBCF15F0D890155004E6640E145C5D
:101A3000000E155806E2020EDB2A030E01E3DB2A34
:101A4000ECD7DF2A010E01E3DB2AD7D7040EE15CD5
:101A500002E2E16AE552E16EE552E7CFD9FF1200FA
:101A6000D9CFE6FFE1CFD9FF020EE126DE6ADD6ABB
:101A7000DECF14F0DDCF15F0D890155004E6120E2D
:101A8000145C000E155805E2DF2A010E01E3DB2A83
:101A9000EFD7020EE15C02E2E16AE552E16EE55247
:101AA000E7CFD9FF1200D9CFE6FFE1CFD9FF020E71
:101AB000E126DE6ADD6ADECF14F0DDCF15F0D890C6
:101AC000155004E6200E145C030E155805E2DF2ABB
:101AD000010E01E3DB2AEFD7020EE15C02E2E16ACC
:101AE000E552E16EE552E7CFD9FF12001200D9CFDF
:101AF000E6FFE1CFD9FF8D6AFE0EDB50F00B8C6E56
:101B00008D80D1DF8D6AE552E7CFD9FF1200D9CFA2
:101B1000E6FFE1CFD9FF040E8D6EFE0EDB50F00B19
:101B20008C6E8D80C0DF040E8D16E552E7CFD9FF95
:101B30001200D9CFE6FFE1CFD9FFFE0EDB50F00B4C
:101B4000E66ED5DFE552FE0EDB38F00BE66ECFDF3A
:101B5000E552E552E7CFD9FF1200D9CFE6FFE1CF3A
:101B6000D9FFFE0EDB50F00BE66ED1DFE552FE0E24
:101B7000DB38F00BE66ECBDFE552E552E7CFD9FF5D
:101B80001200846A8D6A966A0F0E95168CDF8BDFC1
:101B90008ADF300EE66EABDFE55285DF300EE66E93
:101BA000A6DFE5525DDF300EE66EA1DFE55258DFBD
:101BB000200EE66E9CDFE55253DF280EE66EB9DF9D
:101BC000E5520D0EE66EB5DFE552010EE66EB1DFB1
:101BD000E552060EE66EADDFE5521200D9CFE6FF04
:101BE000E1CFD9FF050EE126FE0EDB043EE1C00E7B
:101BF000E66E9FDFE5520A0EE66E3BEC18F0E5520A
:101C0000DF6A100EDF5C30E2DF50EA6A800FE96EB7
:101C1000000EEA22EF5017E1010EDFCFDBFF100EBE
:101C2000F36E010EDBCFF4FFF350F45C0CE2010E17
:101C3000DB50EA6A800FE96E000EEA22200EEF6E9A
:101C4000010EDB2AECD7DF50EA6A800FE96E000E46
:101C5000EA22EF50E66E81DFE5520A0EE66E3BECBB
:101C600018F0E552DF2ACDD751D0800EE66E61DF45
:101C7000E552020EF36E030EF3CFDBFF040EDB6AB8
:101C8000030EDBCF14F0DB06040EDBCF15F001E210
:101C9000DB061450151006E0030EE66EFFEC17F09D
:101CA000E552EED7DF6A100EDF5C30E2DF50EA6A01
:101CB000800FE96E000EEA22EF5017E1010EDFCF30
:101CC000DBFF100EF36E010EDBCFF4FFF350F45C7C
:101CD0000CE2010EDB50EA6A800FE96E000EEA2288
:101CE000200EEF6E010EDB2AECD7DF50EA6A800F80
:101CF000E96E000EEA22EF50E66E2FDFE5520A0E83
:101D0000E66E3BEC18F0E552DF2ACDD7050EE15C1C
:101D100002E2E16AE552E16EE552E7CFD9FF120037
:101D2000D9CFE6FFE1CFD9FF070EE126030EDB6A2C
:101D3000040EDB6A050EDB6A060EDB6AFE0EDB04B0
:101D400005E1C00EE66EF5DEE55204D0800EE66ECB
:101D5000F0DEE552DF6A100EDF5C21E2DF50E76E55
:101D6000FC0EDBCFE9FFFD0EDBCFEAFFE750E926F3
:101D7000000EEA22EF5012E0DF50E76EFC0EDBCFE0
:101D8000E9FFFD0EDBCFEAFFE750E926000EEA226D
:101D9000EF50E66EE2DEE552DF2ADDD700D0100E0E
:101DA000DF5C06E2200EE66ED8DEE552DF2AF7D7CA
:101DB000070EE15C02E2E16AE552E16EE552E7CF2F
:101DC000D9FF1200D9CFE6FFE1CFD9FFE652FD0ED1
:101DD000DBCF14F0FE0EDBCF15F0300E1424DF6ED7
:101DE000DF5000D0E552E552E7CFD9FF1200D9CF3E
:101DF000E6FFE1CFD9FF270EE126DE6ADD6A020E9B
:101E0000DB6A030EDB6A040EDB6A050EDB6A060E74
:101E1000DB6A070EDB6A0A0EDB6A0B0EDB6AFD0E5D
:101E2000DBCF14F0FE0EDBCF15F0FB0EDBCF16F090
:101E3000FC0EDBCF17F01450165C155017581BE240
:101E4000FD0EDBCF16F0FE0EDBCF17F0FB0EDB50E6
:101E5000165C146EFC0EDB501758156E050E15023D
:101E6000F3CF15F01402F3CF14F0F450152614C07C
:101E7000DEFF15C0DDFFFB0EDBCF14F0FC0EDBCF69
:101E800015F0FD0EDBCF16F0FE0EDBCF17F0145071
:101E9000165C155017581BE2FB0EDBCF16F0FC0E3C
:101EA000DBCF17F0FD0EDB50165C146EFE0EDB5020
:101EB0001758156E050E1502F3CF15F01402F3CF67
:101EC00014F0F450152614C0DEFF15C0DDFFD9CF85
:101ED000E9FFDACFEAFF020EEECFDBFF030EEDCF14
:101EE000DBFF520EF36E0C0EF3CFDBFF730EF36EBF
:101EF0000D0EF3CFDBFF3A0EF36E0E0EF3CFDBFFCA
:101F0000310EF36E0F0EF3CFDBFF2A0EF36E100EC1
:101F1000F3CFDBFF0A0EF36EF3CFDBFF0B0EDB6AB2
:101F2000080EDB6A090EDB6A080EDBCF14F0090E1F
:101F3000DBCF15F00A0EDBCF16F00B0EDBCF17F060
:101F40001450165C155017584EE3020EDBCF14F0F8
:101F5000030EDBCF15F00A0E0B6E0C6A14C006F0F0
:101F600015C007F0D7EC17F002C014F003C015F04D
:101F7000040E14C0DBFF050E15C0DBFF040EDBCF23
:101F8000E6FF050EDBCFE6FF1DDFE552E552E66E0C
:101F9000D950200F146EDACF15F0080EDB50142440
:101FA000E96E090EDB501520EA6EE552E750EF6E40
:101FB0000A0E146E156A020EDBCF06F0030EDBCF9D
:101FC00007F014C00BF015C00CF0D7EC17F0020EA0
:101FD00006C0DBFF030E07C0DBFF080EDB2A090E7D
:101FE00001E3DB2AA1D70A0EDBCF06F00B0EDBCF15
:101FF00007F0060E06C0DBFF070E07C0DBFF080E6A
:10200000DB6A090EDB6A080EDBCF14F0090EDBCFAA
:1020100015F00A0EDBCF16F00B0EDBCF17F01450C5
:10202000165C1550175845E3D950200F186EDACFBB
:1020300019F0060EDBCF1AF0070EDBCF1BF01A06E5
:10204000000E1B5A18501A24E96E19501B20EA6E14
:10205000EF50E66ED9500C0F146EDACF15F0050E66
:10206000E76E080EDBCF16F0090EDBCF17F0E75056
:102070001626000E172214501624E96E155017204C
:10208000EA6EE552E750EF6E060EDBCF14F0070E56
:10209000DBCF15F01406000E155A060E14C0DBFF38
:1020A000070E15C0DBFF080EDB2A090E01E3DB2A51
:1020B000AAD7D9500C0F146EDACF15F0050EE76EC3
:1020C0000A0EDBCF16F00B0EDBCF17F0E75016260B
:1020D000000E172214501624E96E15501720EA6ED0
:1020E0003D0EEF6E0A0EDBCF06F00B0EDBCF07F0D6
:1020F000060E06C0DBFF070E07C0DBFF080EDB6A1B
:10210000090EDB6A080EDBCF14F0090EDBCF15F0E9
:102110000A0EDBCF16F00B0EDBCF17F01450165C57
:10212000155017584DE3D950200F1A6EDACF1BF017
:10213000060EDBCF1CF0070EDBCF1DF01C06000ED9
:102140001D5A1A501C24E96E1B501D20EA6EEF50D8
:10215000E66ED9500C0F146EDACF15F0060EE76E4E
:102160000A0EDBCF18F00B0EDBCF19F0E750182664
:10217000000E1922080EDB501824166E090EDB50D3
:102180001920176E14501624E96E15501720EA6EA8
:10219000E552E750EF6E060EDBCF14F0070EDBCFF3
:1021A00015F01406000E155A060E14C0DBFF070EBC
:1021B00015C0DBFF080EDB2A090E01E3DB2AA2D7DC
:1021C000020EF36E250EF3CFDBFF260EDB6A250E23
:1021D000DBCF14F0DB06260EDBCF15F001E2DB06C9
:1021E0001450151006E0030EE66EFFEC17F0E552F2
:1021F000EED7D9500C0F146EDACF15F0166A14C052
:10220000E6FF15C0E6FF16C0E6FF800EE66E000E84
:10221000E66E62EC16F0176E050EE15E1750010EC9
:10222000E66EDCDCE552DECF14F0DDCF15F014C035
:10223000F3FF15C0F4FF270EE15C03E200D0E16A72
:10224000E552E16EE552E7CFD9FF1200D9CFE6FFA4
:10225000E1CFD9FF020EE126D950FD0FE96EFF0E46
:10226000DA20EA6E010EEE1801E1ED5005E1C00E34
:10227000E66E5FDCE55204D0800EE66E5ADCE55275
:10228000DE6ADD6ADECF14F0DDCF15F0D890155090
:1022900004E6040E145C000E155805E2DF2A010E58
:1022A00001E3DB2AEFD70A0EE66E3BEC18F0E552AD
:1022B000F90EDBCF14F0FA0EDBCF15F0FB0EDBCFFF
:1022C00016F0FC0EDBCF17F0E80E096E030E0A6E57
:1022D0000B6A0C6A14C004F015C005F016C006F0B5
:1022E00017C007F0B3EC17F004C014F005C015F0E8
:1022F00006C016F007C017F00A0E096E0A6A0B6ACC
:102300000C6A14C004F015C005F016C006F017C022
:1023100007F0B3EC17F000C014F001C015F002C0D4
:1023200016F003C017F014C0E6FF15C0E6FF4ADD43
:10233000E552E552E66E11DCE552F90EDBCF14F002
:10234000FA0EDBCF15F0FB0EDBCF16F0FC0EDBCF69
:1023500017F0640E096E0A6A0B6A0C6A14C004F066
:1023600015C005F016C006F017C007F0B3EC17F063
:1023700004C014F005C015F006C016F007C017F031
:102380000A0E096E0A6A0B6A0C6A14C004F015C0C2
:1023900005F016C006F017C007F0B3EC17F000C048
:1023A00014F001C015F002C016F003C017F014C0FD
:1023B000E6FF15C0E6FF06DDE552E552E66EADEC40
:1023C0000DF0E552F90EDBCF14F0FA0EDBCF15F06D
:1023D000FB0EDBCF16F0FC0EDBCF17F00A0E096EFA
:1023E0000A6A0B6A0C6A14C004F015C005F016C026
:1023F00006F017C007F0B3EC17F004C014F005C0E6
:1024000015F006C016F007C017F00A0E096E0A6A2A
:102410000B6A0C6A14C004F015C005F016C006F073
:1024200017C007F0B3EC17F000C014F001C015F0AE
:1024300002C016F003C017F014C0E6FF15C0E6FF97
:10244000C1DCE552E552E66EADEC0DF0E552F90E59
:10245000DBCF14F0FA0EDBCF15F0FB0EDBCF16F05E
:10246000FC0EDBCF17F00A0E096E0A6A0B6A0C6AC3
:1024700014C004F015C005F016C006F017C007F030
:10248000B3EC17F000C014F001C015F002C016F054
:1024900003C017F014C0E6FF15C0E6FF93DCE55259
:1024A000E552E66EADEC0DF0E552DE6ADD6ADECF98
:1024B00014F0DDCF15F0D890155004E60C0E145C26
:1024C000000E15580AE2200EE66EADEC0DF0E55256
:1024D000DF2A010E01E3DB2AEAD7020EE15C02E209
:0E24E000E16AE552E16EE552E7CFD9FF120046
:0224EE00200EBE
:1024F000AC6EB8960F0EAF6EAC8AAB8EAB88120086
:10250000D9CFE6FFE1CFD9FFE6529EAAFED7AE5063
:10251000DF6EDF5000D0E552E552E7CFD9FF120061
:10252000D9CFE6FFE1CFD9FF9EA8FED7FE0EDB5044
:10253000AD6EFE0EDB5000D0E552E7CFD9FF1200A2
:10254000D9CFE6FFE1CFD9FF460EE1260A0EDE6EB7
:10255000DD6AF36E020EF3CFDBFF030EDB6A080EBB
:10256000DB6A090EDB6A080EDBCF14F0090EDBCF45
:1025700015F0DECF16F0DDCF17F01450165C1550B5
:1025800017584FE3FD0EDBCF14F0FE0EDBCF15F036
:102590000A0E0B6E0C6A14C006F015C007F0D7ECDB
:1025A00017F002C014F003C015F0060E14C0DBFFD4
:1025B000070E15C0DBFF060EDBCFE6FF070EDBCFF5
:1025C000E6FFE2EC0EF0E552E552E66ED9500A0F56
:1025D000146EDACF15F0080EDB501424E96E090EE4
:1025E000DB501520EA6EE552E750EF6E0A0E146ECE
:1025F000156AFD0EDBCF06F0FE0EDBCF07F014C030
:102600000BF015C00CF0D7EC17F0FD0E06C0DBFF89
:10261000FE0E07C0DBFF080EDB2A090E01E3DB2AF2
:10262000A2D7D9CFE9FFDACFEAFF040EEECFDBFF66
:10263000050EEDCFDBFF080EDB6A090EDB6A080E24
:10264000DBCF14F0090EDBCF15F0DECF16F0DDCFB7
:1026500017F01450165C155017583BE3D9500A0F69
:10266000166EDACF17F0040EDBCF18F0050EDBCFB5
:1026700019F01806000E195A16501824E96E175052
:102680001920EA6EEF50E66ED9501E0F146EDACFA5
:1026900015F0080EDB501424E96E090EDB501520EE
:1026A000EA6EE552E750EF6E040EDBCF14F0050E34
:1026B000DBCF15F01406000E155A040E14C0DBFF14
:1026C000050E15C0DBFF080EDB2A090E01E3DB2A2D
:1026D000B6D7080EDB6A090EDB6A080EDBCF14F0F2
:1026E000090EDBCF15F0020EDBCF16F0030EDBCFA9
:1026F00017F01450165C155017584FE3FB0EDBCF44
:1027000014F0FC0EDBCF15F00A0E0B6E0C6A14C031
:1027100006F015C007F0D7EC17F002C014F003C0A4
:1027200015F0060E14C0DBFF070E15C0DBFF060E0A
:10273000DBCFE6FF070EDBCFE6FFE2EC0EF0E55263
:10274000E552E66ED9500A0F146EDACF15F0080E76
:10275000DB501424E96E090EDB501520EA6EE552B9
:10276000E750EF6E0A0E146E156AFB0EDBCF06F013
:10277000FC0EDBCF07F014C00BF015C00CF0D7EC4B
:1027800017F0FB0E06C0DBFFFC0E07C0DBFF080ED8
:10279000DB2A090E01E3DB2AA0D7020EDBCF06F00D
:1027A000030EDBCF07F0040E06C0DBFF050E07C0EB
:1027B000DBFF080EDB6A090EDB6A080EDBCF14F0C4
:1027C000090EDBCF15F0020EDBCF16F0030EDBCFC8
:1027D00017F01450165C155017583BE3D9500A0FE8
:1027E000166EDACF17F0040EDBCF18F0050EDBCF34
:1027F00019F01806000E195A16501824E96E1750D1
:102800001920EA6EEF50E66ED950320F146EDACF0F
:1028100015F0080EDB501424E96E090EDB5015206C
:10282000EA6EE552E750EF6E040EDBCF14F0050EB2
:10283000DBCF15F01406000E155A040E14C0DBFF92
:10284000050E15C0DBFF080EDB2A090E01E3DB2AAB
:10285000B4D73C0EE66E64DEE552080EDB6A090E64
:10286000DB6A080EDBCF14F0090EDBCF15F0145C29
:10287000000E155814E2080EDBCFE9FF090EDBCF7E
:10288000EAFFAB0EE926000EEA22EF50E66E48DEC4
:10289000E552080EDB2A090E01E3DB2AE2D73E0EE1
:1028A000E66E3EDEE552080EDB6A090EDB6A080EB4
:1028B000DBCF14F0090EDBCF15F0DECF16F0DDCF45
:1028C00017F01450165C1550175817E3D9501E0F07
:1028D000146EDACF15F0080EDB501424E96E090EE1
:1028E000DB501520EA6EEF50E66E1ADEE552080E58
:1028F000DB2A090E01E3DB2ADAD72F0EE66E10DEA3
:10290000E552080EDB6A090EDB6A080EDBCF14F015
:10291000090EDBCF15F0020EDBCF16F0030EDBCF76
:1029200017F01450165C1550175817E3D950320F92
:10293000146EDACF15F0080EDB501424E96E090E80
:10294000DB501520EA6EEF50E66EEADDE552080E28
:10295000DB2A090E01E3DB2AD8D73D0EE66EE0DD67
:10296000E552460EE15C02E2E16AE552E16EE552B3
:06297000E7CFD9FF1200C1
:0A2976000F9E0CD00F9E07AE09D093
:10298000046C051E061E071EE86A052206220722A1
:102990000F8E07C001F006C000F005C013F004C0A0
:1029A00012F09E0E026E036A7CEF15F00F6AB8EC0F
:1029B00015F0D0EC15F00FB660EF15F00FA205D0B2
:1029C0000FBA60EF15F067EF15F00FBA73EF15F05F
:1029D0000FA005D00FB860EF15F073EF15F00FB82A
:1029E00067EF15F0036A7F0E0824026EE86A03227F
:1029F0000D50025EE86A035A1A0E106E086A126AD7
:102A0000136A006A016A0A50055E0B50065A0C50A0
:102A1000075A000E085A09E70A5005260B500622ED
:102A20000C500722000E082201D0128AD8900536D9
:102A3000063607360836D890123613360036013679
:102A4000102EE1D7075006100510D8A4128A7CEF8B
:102A500015F00F6AB8EC15F00FB633EF15F00FA2B2
:102A60000FD00FB407D07F0E076EFF0E066E056EF7
:102A7000046E25D0800E076E01D0076A000EF6D7CF
:102A80000FB0FBD7046A9F0E0860EBD77E0E086478
:102A9000F4D79E0E085C07E0D89007320632053264
:102AA0000432082AF6D70FA40AD0046C051E061EAD
:102AB000071EE86A05220622072207AEDED71200AB
:102AC0007F0E086EFF0E076E066E056E12007F0EFB
:102AD0000FBEFF0E086E02D07F0E086E800E076ECE
:102AE000066A056AF3D70FAE04D0800E086E076A37
:102AF000F7D7086A076AF4D70150001013101210B4
:102B0000F8E003BEF0D701BE0CD002500310EBE09A
:102B1000D89012361336003601360206D8A00306C6
:102B2000F2D70350D4E10228D2E012AE11D07F0ECA
:102B3000121402E113A00CD0132AE86A0022012229
:102B400007E3D880013200321332022A0228BFE0A4
:102B50000250C9E013C005F000C006F00134076E52
:102B60000230086E0732089E0FBE088E66EF15F021
:102B70000736083602E30F840F7E06E10F80086AED
:102B8000076A066A056A1200082803E0D88007323F
:102B90001200D890073202E10F8212000F86120055
:102BA0000C360D3602E30F8C0F7E06E10F880D6A9E
:102BB0000C6A0B6A0A6A12000D2803E0D8800C32F6
:102BC0001200D8900C32EAE10F8A120007C013F00D
:102BD00006C012F006500B02F4CF05F0F3CF04F05C
:102BE00007500C02F4CF07F0F3CF06F00B02F350BE
:102BF0000526F4500622E86A072212500C02F35010
:102C00000526F4500622E86A07220CAE0CEF16F0F7
:102C10001250065E1350075A13AE000C0B50065E9E
:062C20000C50075A000CE5
:0A2C2600060EF66E000EF76E000EAB
:102C3000F86E00010900F550A66F0900F550A76F66
:102C400003E1A66701D03DD00900F550A16F09004E
:102C5000F550A26F0900F550A36F09000900F55067
:102C6000E96E0900F550EA6E090009000900F55007
:102C7000A46F0900F550A56F09000900F6CFA8F070
:102C8000F7CFA9F0F8CFAAF0A1C0F6FFA2C0F7FFD6
:102C9000A3C0F8FF0001A45302E1A55307E0090017
:102CA000F550EE6EA407F8E2A507F9D7A8C0F6FF25
:102CB000A9C0F7FFAAC0F8FF0001A607000EA75B96
:042CC000BFD7120068
:0C2CC400FB0EE3CFF6FFFC0EE3CFF7FFA2
:102CD000FD0EE3CFF8FFFE0EE3CFE9FFFF0EE3CFDB
:102CE000EAFFE9CFF3FFEACFF4FF0900F5CFEFFFEA
:102CF000EE66FBD71200FE0EE3CFE9FFFF0EE3CF37
:102D0000EAFFF36AF46AEE5203E0F34AF42AFBD7CF
:102D10001200FF0EE3CFF8FFE552FF0EE3CFF7FFFF
:102D2000E552FF0EE3CFF6FFE552E66AE66AE66A91
:102D30000900F55209E0FD0EE32A05E1FE0EE32A43
:102D400002E1FF0EE32AF4D7FD0EE3CF05F0FE0EFD
:0C2D5000E3CF06F0FF0EE3CF07F0120007
:042D5C00D9CFE6FFE6
:102D6000DACFE6FFE1CFD9FFE2CFDAFFE652E65253
:102D7000E652E652D950FB0F146EFF0EDA20156EA4
:102D800014C0DEFFDD6EDECFE6FFDDCFE6FFFB0E1B
:102D9000DBCFE6FFFC0EDBCFE6FFFD0EDBCFE6FF71
:102DA000B9C0E6FFBAC0E6FFFAEC06F0146E070EF3
:102DB000E15C02E2E16AE552E16E1450020EF3CFEB
:102DC000DBFF030EF4CFDBFF020EDBCF14F0030EAC
:102DD000DBCF15F014C0F3FF15C0F4FF040EE15C67
:102DE00002E2E16AE552E16EE552E5CFDAFFE7CFB4
:042DF000D9FF1200F5
:0C2DF400D9CFE6FFDACFE6FFE1CFD9FF30
:102E0000E2CFDAFFFB0EDBCF14F0FC0EDBCF15F0C8
:102E10000001800E15141AE1FB0EDBCFE9FFFC0E5A
:102E2000DBCFEAFFEECFF3FFEDCFF4FFEE2A000E8B
:102E3000EF22F3CFE9FFF4CFEAFFFD0EDBCFEFFF88
:102E4000EF50156AF36E15C0F4FF10D0FB0EDB5087
:102E5000FE0806E1FD0EDBCFE6FF2DEC18F005D0F5
:102E6000FD0EDBCFE6FF4FEC18F0E552E552E5CF63
:082E7000DAFFE7CFD9FF1200E1
:082E780074657374206D6F6432
:102E800065210074657374206D6F646520696E73CD
:102E900069646521004841505059204845414C54CF
:102EA000480057454C434F4D450073656E736F7234
:102EB0005F323A20256C64200074657374206D6F56
:102EC000646520310073656E736F725F313A20253F
:102ED0006C64200074657374206D6F64652032210A
:102EE0000053616665204472697665210057656C00
:052EF000636F6D650039
:0A2EF60004500902F3CF00F0F4CFFE
:102F000001F00A02F3500126000EF420026E045074
:102F10000B02F3500226000EF420036E04500C0244
:102F2000F350032605500902F3500126F450022203
:102F3000000E032205500A02F3500226F450032229
:102F400005500B02F350032606500902F3500226E7
:102F5000F450032206500A02F350032607500902D8
:062F6000F35003261200ED
:0A2F6600036A026A016A006A200E85
:102F7000E76ED89004360536063607360036013639
:102F8000023603360950005C0A5001580B500258B3
:102F90000C50035809E30950005E0A50015A0B50C7
:0E2FA000025A0C50035A042AE72EE4D71200FE
:022FAE00036AB4
:102FB000026A100EE76ED8900636073602360336E0
:102FC0000B50025C0C50035805E30B50025E0C5092
:0A2FD000035A062AE72EF0D712007C
:062FDA00F36AF46AFF0E29
:102FE000E124E96EFF0EE220EA6EED6607D02F0EB7
:0E2FF000EF6404D03A0EEF6001D0F32A120015
:022FFE00FF0EC4
:10300000E3501E6E480E01D04C0EE76EE72EFED741
:0E301000E76AE72EFED71E2EF7D7000012004B
:02301E00000EA2
:10302000F36E00EE00F0060E01D81200EA6002D046
:0E303000EE6AFCD7F350E9601200EE6AFCD79E
:02303E0015EE8D
:1030400000F025EE00F0F86A0F9C13EC16F050EC3F
:0A30500018F0EFEC04F0FBD71200BB
:06305A00FF0EE350ACBACA
:1030600004D0AF6AAB8EAC8A949CACA2FED7AD6E96
:06307000F36EF46A120089
:0A307600FF0EE350E84E12000000C8
:0C30800000D000D000D0E82EFAD71200DB
:04308C00303132337A
:0D3090003435363738396162636465660097
:02309E0012001E
:0230A00012001C
:0230A200FEFF2F
:0430A4000000000028
:0830A800544E33314A36303337
:0230B0003000EE
:00000001FF
